{
  "contractName": "TimeDeliveryManagement",
  "abi": [
    {
      "constant": true,
      "inputs": [],
      "name": "debug",
      "outputs": [
        {
          "name": "",
          "type": "string"
        }
      ],
      "payable": false,
      "stateMutability": "view",
      "type": "function"
    },
    {
      "constant": true,
      "inputs": [],
      "name": "maxid",
      "outputs": [
        {
          "name": "",
          "type": "uint256"
        }
      ],
      "payable": false,
      "stateMutability": "view",
      "type": "function"
    },
    {
      "constant": true,
      "inputs": [],
      "name": "warehouse",
      "outputs": [
        {
          "name": "",
          "type": "address"
        }
      ],
      "payable": false,
      "stateMutability": "view",
      "type": "function"
    },
    {
      "inputs": [],
      "payable": false,
      "stateMutability": "nonpayable",
      "type": "constructor"
    },
    {
      "constant": false,
      "inputs": [],
      "name": "createDeliverySlot",
      "outputs": [],
      "payable": false,
      "stateMutability": "nonpayable",
      "type": "function"
    },
    {
      "constant": false,
      "inputs": [
        {
          "name": "indexofDS",
          "type": "uint256"
        }
      ],
      "name": "getFirstDeliverySlots",
      "outputs": [
        {
          "name": "success",
          "type": "string"
        }
      ],
      "payable": false,
      "stateMutability": "nonpayable",
      "type": "function"
    },
    {
      "constant": false,
      "inputs": [
        {
          "name": "searchstring",
          "type": "string"
        }
      ],
      "name": "getAllDeliverySlots",
      "outputs": [
        {
          "name": "success",
          "type": "string"
        }
      ],
      "payable": false,
      "stateMutability": "nonpayable",
      "type": "function"
    },
    {
      "constant": false,
      "inputs": [
        {
          "name": "idOfDS",
          "type": "uint256"
        }
      ],
      "name": "bookDeliverySlot",
      "outputs": [
        {
          "name": "success",
          "type": "string"
        }
      ],
      "payable": false,
      "stateMutability": "nonpayable",
      "type": "function"
    }
  ],
  "bytecode": "0x6060604052341561000f57600080fd5b33600260006101000a81548173ffffffffffffffffffffffffffffffffffffffff021916908373ffffffffffffffffffffffffffffffffffffffff1602179055506040805190810160405280600c81526020017f77697220676577696e6e656e00000000000000000000000000000000000000008152506000908051906020019061009b9291906100a9565b50600060018190555061014e565b828054600181600116156101000203166002900490600052602060002090601f016020900481019282601f106100ea57805160ff1916838001178555610118565b82800160010185558215610118579182015b828111156101175782518255916020019190600101906100fc565b5b5090506101259190610129565b5090565b61014b91905b8082111561014757600081600090555060010161012f565b5090565b90565b610fb58061015d6000396000f300606060405260043610610083576000357c0100000000000000000000000000000000000000000000000000000000900463ffffffff168063588ee29b1461008857806382879f29146101165780638b5fae5d146101b25780639b622769146101db578063b134645d14610230578063cc82337414610306578063e695f6261461031b575b600080fd5b341561009357600080fd5b61009b6103b7565b6040518080602001828103825283818151815260200191508051906020019080838360005b838110156100db5780820151818401526020810190506100c0565b50505050905090810190601f1680156101085780820380516001836020036101000a031916815260200191505b509250505060405180910390f35b341561012157600080fd5b6101376004808035906020019091905050610455565b6040518080602001828103825283818151815260200191508051906020019080838360005b8381101561017757808201518184015260208101905061015c565b50505050905090810190601f1680156101a45780820380516001836020036101000a031916815260200191505b509250505060405180910390f35b34156101bd57600080fd5b6101c561067a565b6040518082815260200191505060405180910390f35b34156101e657600080fd5b6101ee610680565b604051808273ffffffffffffffffffffffffffffffffffffffff1673ffffffffffffffffffffffffffffffffffffffff16815260200191505060405180910390f35b341561023b57600080fd5b61028b600480803590602001908201803590602001908080601f016020809104026020016040519081016040528093929190818152602001838380828437820191505050505050919050506106a6565b6040518080602001828103825283818151815260200191508051906020019080838360005b838110156102cb5780820151818401526020810190506102b0565b50505050905090810190601f1680156102f85780820380516001836020036101000a031916815260200191505b509250505060405180910390f35b341561031157600080fd5b61031961085e565b005b341561032657600080fd5b61033c6004808035906020019091905050610b92565b6040518080602001828103825283818151815260200191508051906020019080838360005b8381101561037c578082015181840152602081019050610361565b50505050905090810190601f1680156103a95780820380516001836020036101000a031916815260200191505b509250505060405180910390f35b60008054600181600116156101000203166002900480601f01602080910402602001604051908101604052809291908181526020018280546001816001161561010002031660029004801561044d5780601f106104225761010080835404028352916020019161044d565b820191906000526020600020905b81548152906001019060200180831161043057829003601f168201915b505050505081565b61045d610cbc565b600060036000600260009054906101000a900473ffffffffffffffffffffffffffffffffffffffff1673ffffffffffffffffffffffffffffffffffffffff1673ffffffffffffffffffffffffffffffffffffffff16815260200190815260200160002060010160008154811015156104d157fe5b9060005260206000209060080201905060008160010160006101000a81548160ff021916908315150217905550600360003373ffffffffffffffffffffffffffffffffffffffff1673ffffffffffffffffffffffffffffffffffffffff16815260200190815260200160002060010180548060010182816105529190610cd0565b91600052602060002090600802016000839091909150600082015481600001556001820160009054906101000a900460ff168160010160006101000a81548160ff021916908315150217905550600282018160020190805460018160011615610100020316600290046105c6929190610d02565b50600382018160030190805460018160011615610100020316600290046105ee929190610d02565b506004820154816004015560058201816005019080546001816001161561010002031660029004610620929190610d02565b5060068201816006019080546001816001161561010002031660029004610648929190610d02565b5060078201816007019080546001816001161561010002031660029004610670929190610d02565b5050505050919050565b60015481565b600260009054906101000a900473ffffffffffffffffffffffffffffffffffffffff1681565b6106ae610cbc565b60008060036000600260009054906101000a900473ffffffffffffffffffffffffffffffffffffffff1673ffffffffffffffffffffffffffffffffffffffff1673ffffffffffffffffffffffffffffffffffffffff168152602001908152602001600020600101600081548110151561072357fe5b9060005260206000209060080201600201915060036000600260009054906101000a900473ffffffffffffffffffffffffffffffffffffffff1673ffffffffffffffffffffffffffffffffffffffff1673ffffffffffffffffffffffffffffffffffffffff16815260200190815260200160002060010160008154811015156107a857fe5b90600052602060002090600802016003019050818054600181600116156101000203166002900480601f0160208091040260200160405190810160405280929190818152602001828054600181600116156101000203166002900480156108505780601f1061082557610100808354040283529160200191610850565b820191906000526020600020905b81548152906001019060200180831161083357829003601f168201915b505050505092505050919050565b600260009054906101000a900473ffffffffffffffffffffffffffffffffffffffff1673ffffffffffffffffffffffffffffffffffffffff163373ffffffffffffffffffffffffffffffffffffffff161415156108ba57610b90565b600360003373ffffffffffffffffffffffffffffffffffffffff1673ffffffffffffffffffffffffffffffffffffffff168152602001908152602001600020600101805480600101828161090e9190610cd0565b9160005260206000209060080201600061010060405190810160405280600160008154809291906001019190505581526020016001151581526020016040805190810160405280600781526020017f6765737465726e0000000000000000000000000000000000000000000000000081525081526020016040805190810160405280600581526020017f68657574650000000000000000000000000000000000000000000000000000008152508152602001600581526020016040805190810160405280600381526020017f313233000000000000000000000000000000000000000000000000000000000081525081526020016040805190810160405280600a81526020017f576172656e68617573310000000000000000000000000000000000000000000081525081526020016040805190810160405280600381526020017f456973000000000000000000000000000000000000000000000000000000000081525081525090919091506000820151816000015560208201518160010160006101000a81548160ff0219169083151502179055506040820151816002019080519060200190610ac1929190610d89565b506060820151816003019080519060200190610ade929190610d89565b506080820151816004015560a0820151816005019080519060200190610b05929190610d89565b5060c0820151816006019080519060200190610b22929190610d89565b5060e0820151816007019080519060200190610b3f929190610d89565b505050506040805190810160405280600c81526020017f6861742067656b6c61707074000000000000000000000000000000000000000081525060009080519060200190610b8e929190610e09565b505b565b610b9a610cbc565b60036000600260009054906101000a900473ffffffffffffffffffffffffffffffffffffffff1673ffffffffffffffffffffffffffffffffffffffff1673ffffffffffffffffffffffffffffffffffffffff16815260200190815260200160002060010182815481101515610c0b57fe5b90600052602060002090600802016002018054600181600116156101000203166002900480601f016020809104026020016040519081016040528092919081815260200182805460018160011615610100020316600290048015610cb05780601f10610c8557610100808354040283529160200191610cb0565b820191906000526020600020905b815481529060010190602001808311610c9357829003601f168201915b50505050509050919050565b602060405190810160405280600081525090565b815481835581811511610cfd57600802816008028360005260206000209182019101610cfc9190610e89565b5b505050565b828054600181600116156101000203166002900490600052602060002090601f016020900481019282601f10610d3b5780548555610d78565b82800160010185558215610d7857600052602060002091601f016020900482015b82811115610d77578254825591600101919060010190610d5c565b5b509050610d859190610f1c565b5090565b828054600181600116156101000203166002900490600052602060002090601f016020900481019282601f10610dca57805160ff1916838001178555610df8565b82800160010185558215610df8579182015b82811115610df7578251825591602001919060010190610ddc565b5b509050610e059190610f1c565b5090565b828054600181600116156101000203166002900490600052602060002090601f016020900481019282601f10610e4a57805160ff1916838001178555610e78565b82800160010185558215610e78579182015b82811115610e77578251825591602001919060010190610e5c565b5b509050610e859190610f1c565b5090565b610f1991905b80821115610f15576000808201600090556001820160006101000a81549060ff0219169055600282016000610ec49190610f41565b600382016000610ed49190610f41565b6004820160009055600582016000610eec9190610f41565b600682016000610efc9190610f41565b600782016000610f0c9190610f41565b50600801610e8f565b5090565b90565b610f3e91905b80821115610f3a576000816000905550600101610f22565b5090565b90565b50805460018160011615610100020316600290046000825580601f10610f675750610f86565b601f016020900490600052602060002090810190610f859190610f1c565b5b505600a165627a7a72305820a2dfff6de89973ccb3beb00e73bd3230a6c77a156dfe7ed531b2ecbe67aaa9110029",
  "source": "pragma solidity ^0.4.0;\ncontract TimeDeliveryManagement {\n\n   string public debug ;\n\n   struct DeliverySlot{\n       uint256 id;\n       bool    isTradeable;\n       string  timeFrom;\n       string  timeTo;\n       uint    price;\n       string  gate;\n       string  warehouseName;\n       string  deliveryType;\n   }\n\n   struct Supplier {\n       address userId;\n       DeliverySlot[] deliverySlots;\n   }\n\n   uint256 public maxid;\n\n   address public warehouse;\n   mapping(address => Supplier) suppliers;\n\n\n   function TimeDeliveryManagement() public {\n           warehouse = msg.sender;\n           debug = \"wir gewinnen\";\n           maxid = 0;\n       }\n\n   function createDeliverySlot()  public {\n       if (msg.sender != warehouse) return;\n            suppliers[msg.sender].deliverySlots.push(DeliverySlot({\n               id: maxid++, isTradeable: true, timeFrom: \"gestern\", timeTo: \"heute\", price:5, gate:\"123\", warehouseName: \"Warenhaus1\", deliveryType: \"Eis\"\n           }));\n           debug = \"hat geklappt\";\n   }\n\n   function getFirstDeliverySlots(uint256 indexofDS) public returns (string success)\n   {\n       success = suppliers[warehouse].deliverySlots[indexofDS].timeFrom;\n   }\n\n   function getAllDeliverySlots(string searchstring) public returns (string success)\n   {\n       string storage s1 = suppliers[warehouse].deliverySlots[0].timeFrom;\n       string storage s2 = suppliers[warehouse].deliverySlots[0].timeTo;\n       success = s1;\n   }\n\n   function bookDeliverySlot(uint256 idOfDS) public returns (string success)\n   {\n     DeliverySlot storage deSlot = suppliers[warehouse].deliverySlots[0];\n     deSlot.isTradeable = false;\n     suppliers[msg.sender].deliverySlots.push(deSlot);\n   }\n\n}\n",
  "sourcePath": "/Users/markus.frindt/projects/hackathon/contracts/TimeDeliveryManagement.sol",
  "compiler": {
    "name": "solc",
    "version": "0.4.19+commit.c4cbbb05.Emscripten.clang"
  },
  "schemaVersion": "1.0.1",
  "updatedAt": "2018-02-23T17:16:47.788Z"
}