{
  "contractName": "TimeDeliveryManagement",
  "abi": [
    {
      "constant": true,
      "inputs": [],
      "name": "debug",
      "outputs": [
        {
          "name": "",
          "type": "string"
        }
      ],
      "payable": false,
      "stateMutability": "view",
      "type": "function"
    },
    {
      "constant": true,
      "inputs": [],
      "name": "maxid",
      "outputs": [
        {
          "name": "",
          "type": "uint256"
        }
      ],
      "payable": false,
      "stateMutability": "view",
      "type": "function"
    },
    {
      "constant": true,
      "inputs": [],
      "name": "warehouse",
      "outputs": [
        {
          "name": "",
          "type": "address"
        }
      ],
      "payable": false,
      "stateMutability": "view",
      "type": "function"
    },
    {
      "inputs": [],
      "payable": false,
      "stateMutability": "nonpayable",
      "type": "constructor"
    },
    {
      "constant": false,
      "inputs": [],
      "name": "createDeliverySlot",
      "outputs": [
        {
          "name": "currentID",
          "type": "uint256"
        }
      ],
      "payable": false,
      "stateMutability": "nonpayable",
      "type": "function"
    },
    {
      "constant": false,
      "inputs": [
        {
          "name": "indexofDS",
          "type": "uint256"
        }
      ],
      "name": "getFirstDeliverySlots",
      "outputs": [
        {
          "name": "success",
          "type": "string"
        }
      ],
      "payable": false,
      "stateMutability": "nonpayable",
      "type": "function"
    },
    {
      "constant": false,
      "inputs": [
        {
          "name": "searchstring",
          "type": "string"
        }
      ],
      "name": "getAllDeliverySlots",
      "outputs": [
        {
          "name": "success",
          "type": "string"
        }
      ],
      "payable": false,
      "stateMutability": "nonpayable",
      "type": "function"
    },
    {
      "constant": false,
      "inputs": [
        {
          "name": "idOfDS",
          "type": "uint256"
        }
      ],
      "name": "purchaseDeliverySlot",
      "outputs": [
        {
          "name": "success",
          "type": "bool"
        }
      ],
      "payable": false,
      "stateMutability": "nonpayable",
      "type": "function"
    },
    {
      "constant": false,
      "inputs": [
        {
          "name": "idOfDS",
          "type": "uint256"
        }
      ],
      "name": "offerDeliverySlot",
      "outputs": [
        {
          "name": "success",
          "type": "bool"
        }
      ],
      "payable": false,
      "stateMutability": "nonpayable",
      "type": "function"
    },
    {
      "constant": false,
      "inputs": [],
      "name": "setBuyOrderDeliverySlot",
      "outputs": [
        {
          "name": "success",
          "type": "bool"
        }
      ],
      "payable": false,
      "stateMutability": "nonpayable",
      "type": "function"
    }
  ],
  "bytecode": "0x606060405234156200001057600080fd5b33600260006101000a81548173ffffffffffffffffffffffffffffffffffffffff021916908373ffffffffffffffffffffffffffffffffffffffff1602179055506040805190810160405280600c81526020017f77697220676577696e6e656e0000000000000000000000000000000000000000815250600090805190602001906200009e929190620000ad565b5060006001819055506200015c565b828054600181600116156101000203166002900490600052602060002090601f016020900481019282601f10620000f057805160ff191683800117855562000121565b8280016001018555821562000121579182015b828111156200012057825182559160200191906001019062000103565b5b50905062000130919062000134565b5090565b6200015991905b80821115620001555760008160009055506001016200013b565b5090565b90565b611384806200016c6000396000f300606060405260043610610099576000357c0100000000000000000000000000000000000000000000000000000000900463ffffffff16806345d5eccc1461009e5780634fd1750d146100d9578063588ee29b146101145780638b5fae5d146101a25780639b622769146101cb578063b134645d14610220578063bba57ad4146102f6578063cc82337414610323578063e695f6261461034c575b600080fd5b34156100a957600080fd5b6100bf60048080359060200190919050506103e8565b604051808215151515815260200191505060405180910390f35b34156100e457600080fd5b6100fa60048080359060200190919050506105c3565b604051808215151515815260200191505060405180910390f35b341561011f57600080fd5b610127610658565b6040518080602001828103825283818151815260200191508051906020019080838360005b8381101561016757808201518184015260208101905061014c565b50505050905090810190601f1680156101945780820380516001836020036101000a031916815260200191505b509250505060405180910390f35b34156101ad57600080fd5b6101b56106f6565b6040518082815260200191505060405180910390f35b34156101d657600080fd5b6101de6106fc565b604051808273ffffffffffffffffffffffffffffffffffffffff1673ffffffffffffffffffffffffffffffffffffffff16815260200191505060405180910390f35b341561022b57600080fd5b61027b600480803590602001908201803590602001908080601f01602080910402602001604051908101604052809392919081815260200183838082843782019150505050505091905050610722565b6040518080602001828103825283818151815260200191508051906020019080838360005b838110156102bb5780820151818401526020810190506102a0565b50505050905090810190601f1680156102e85780820380516001836020036101000a031916815260200191505b509250505060405180910390f35b341561030157600080fd5b610309610bd4565b604051808215151515815260200191505060405180910390f35b341561032e57600080fd5b610336610bdd565b6040518082815260200191505060405180910390f35b341561035757600080fd5b61036d6004808035906020019091905050610e78565b6040518080602001828103825283818151815260200191508051906020019080838360005b838110156103ad578082015181840152602081019050610392565b50505050905090810190601f1680156103da5780820380516001836020036101000a031916815260200191505b509250505060405180910390f35b60008060036000600260009054906101000a900473ffffffffffffffffffffffffffffffffffffffff1673ffffffffffffffffffffffffffffffffffffffff1673ffffffffffffffffffffffffffffffffffffffff16815260200190815260200160002060010160008481526020019081526020016000209050428160030154111561047757600091506105bd565b60008160010160006101000a81548160ff02191690831515021790555080600360003373ffffffffffffffffffffffffffffffffffffffff1673ffffffffffffffffffffffffffffffffffffffff1681526020019081526020016000206001016000858152602001908152602001600020600082015481600001556001820160009054906101000a900460ff168160010160006101000a81548160ff02191690831515021790555060028201548160020155600382015481600301556004820154816004015560058201816005019080546001816001161561010002031660029004610564929190611184565b506006820181600601908054600181600116156101000203166002900461058c929190611184565b50600782018160070190805460018160011615610100020316600290046105b4929190611184565b50905050600191505b50919050565b600080600360003373ffffffffffffffffffffffffffffffffffffffff1673ffffffffffffffffffffffffffffffffffffffff1681526020019081526020016000206001016000848152602001908152602001600020905042816003015411156106305760009150610652565b60018160010160006101000a81548160ff021916908315150217905550600191505b50919050565b60008054600181600116156101000203166002900480601f0160208091040260200160405190810160405280929190818152602001828054600181600116156101000203166002900480156106ee5780601f106106c3576101008083540402835291602001916106ee565b820191906000526020600020905b8154815290600101906020018083116106d157829003601f168201915b505050505081565b60015481565b600260009054906101000a900473ffffffffffffffffffffffffffffffffffffffff1681565b61072a61120b565b6000806040805190810160405280600281526020017f7b5b0000000000000000000000000000000000000000000000000000000000008152509250600191505b600154821015610b8157428160030154111561078557610b74565b6107cd6040805190810160405280600181526020017f7b0000000000000000000000000000000000000000000000000000000000000081525084610f9b90919063ffffffff16565b5060036000600260009054906101000a900473ffffffffffffffffffffffffffffffffffffffff1673ffffffffffffffffffffffffffffffffffffffff1673ffffffffffffffffffffffffffffffffffffffff1681526020019081526020016000206001016000838152602001908152602001600020905061093b6040805190810160405280600381526020017f202c20000000000000000000000000000000000000000000000000000000000081525061092d836006018054600181600116156101000203166002900480601f0160208091040260200160405190810160405280929190818152602001828054600181600116156101000203166002900480156109195780601f106108ee57610100808354040283529160200191610919565b820191906000526020600020905b8154815290600101906020018083116108fc57829003601f168201915b505050505086610f9b90919063ffffffff16565b610f9b90919063ffffffff16565b50610a326040805190810160405280600381526020017f202c200000000000000000000000000000000000000000000000000000000000815250610a24836005018054600181600116156101000203166002900480601f016020809104026020016040519081016040528092919081815260200182805460018160011615610100020316600290048015610a105780601f106109e557610100808354040283529160200191610a10565b820191906000526020600020905b8154815290600101906020018083116109f357829003601f168201915b505050505086610f9b90919063ffffffff16565b610f9b90919063ffffffff16565b50610b296040805190810160405280600381526020017f202c200000000000000000000000000000000000000000000000000000000000815250610b1b836007018054600181600116156101000203166002900480601f016020809104026020016040519081016040528092919081815260200182805460018160011615610100020316600290048015610b075780601f10610adc57610100808354040283529160200191610b07565b820191906000526020600020905b815481529060010190602001808311610aea57829003601f168201915b505050505086610f9b90919063ffffffff16565b610f9b90919063ffffffff16565b50610b726040805190810160405280600181526020017f7d0000000000000000000000000000000000000000000000000000000000000081525084610f9b90919063ffffffff16565b505b818060010192505061076a565b610bc96040805190810160405280600281526020017f5d7d00000000000000000000000000000000000000000000000000000000000081525084610f9b90919063ffffffff16565b508292505050919050565b60006001905090565b6000600260009054906101000a900473ffffffffffffffffffffffffffffffffffffffff1673ffffffffffffffffffffffffffffffffffffffff163373ffffffffffffffffffffffffffffffffffffffff16141515610c3b57610e75565b60016000815480929190600101919050559050610100604051908101604052808281526020016001151581526020016104dd81526020016104d28152602001600581526020016040805190810160405280600381526020017f313233000000000000000000000000000000000000000000000000000000000081525081526020016040805190810160405280600a81526020017f576172656e68617573310000000000000000000000000000000000000000000081525081526020016040805190810160405280600481526020017f466f6f6400000000000000000000000000000000000000000000000000000000815250815250600360003373ffffffffffffffffffffffffffffffffffffffff1673ffffffffffffffffffffffffffffffffffffffff16815260200190815260200160002060010160008381526020019081526020016000206000820151816000015560208201518160010160006101000a81548160ff02191690831515021790555060408201518160020155606082015181600301556080820151816004015560a0820151816005019080519060200190610de792919061121f565b5060c0820151816006019080519060200190610e0492919061121f565b5060e0820151816007019080519060200190610e2192919061121f565b509050506040805190810160405280600c81526020017f6861742067656b6c61707074000000000000000000000000000000000000000081525060009080519060200190610e7092919061129f565b508090505b90565b610e8061120b565b60036000600260009054906101000a900473ffffffffffffffffffffffffffffffffffffffff1673ffffffffffffffffffffffffffffffffffffffff1673ffffffffffffffffffffffffffffffffffffffff16815260200190815260200160002060010160008381526020019081526020016000206006018054600181600116156101000203166002900480601f016020809104026020016040519081016040528092919081815260200182805460018160011615610100020316600290048015610f8c5780601f10610f6157610100808354040283529160200191610f8c565b820191906000526020600020905b815481529060010190602001808311610f6f57829003601f168201915b50505050509050809050919050565b610fa361120b565b610fab61131f565b610fb361131f565b610fbb61120b565b610fc361131f565b60008088955087945060008551111515610fd957fe5b8451865101604051805910610feb5750595b9080825280601f01601f19166020018201604052509350839250600091505b85518210156110bd57858281518110151561102157fe5b9060200101517f010000000000000000000000000000000000000000000000000000000000000090047f010000000000000000000000000000000000000000000000000000000000000002838280600101935081518110151561108057fe5b9060200101907effffffffffffffffffffffffffffffffffffffffffffffffffffffffffffff1916908160001a905350818060010192505061100a565b600091505b84518210156111755784828151811015156110d957fe5b9060200101517f010000000000000000000000000000000000000000000000000000000000000090047f010000000000000000000000000000000000000000000000000000000000000002838280600101935081518110151561113857fe5b9060200101907effffffffffffffffffffffffffffffffffffffffffffffffffffffffffffff1916908160001a90535081806001019250506110c2565b82965050505050505092915050565b828054600181600116156101000203166002900490600052602060002090601f016020900481019282601f106111bd57805485556111fa565b828001600101855582156111fa57600052602060002091601f016020900482015b828111156111f95782548255916001019190600101906111de565b5b5090506112079190611333565b5090565b602060405190810160405280600081525090565b828054600181600116156101000203166002900490600052602060002090601f016020900481019282601f1061126057805160ff191683800117855561128e565b8280016001018555821561128e579182015b8281111561128d578251825591602001919060010190611272565b5b50905061129b9190611333565b5090565b828054600181600116156101000203166002900490600052602060002090601f016020900481019282601f106112e057805160ff191683800117855561130e565b8280016001018555821561130e579182015b8281111561130d5782518255916020019190600101906112f2565b5b50905061131b9190611333565b5090565b602060405190810160405280600081525090565b61135591905b80821115611351576000816000905550600101611339565b5090565b905600a165627a7a72305820be891fe4f1b0a93ce4517bb57b461f35cfd5cfa1abcefe2ff57654c9c778df050029",
  "source": "\n//import \"https://github.com/Arachnid/solidity-stringutils/blob/master/strings.sol\";\n\n//https://github.com/willitscale/solidity-util#concatstring--string kopiert\nimport \"./Strings.sol\";\n\npragma solidity ^0.4.0;\n\ncontract TimeDeliveryManagement {\n\n    using Strings for string;\n    string public debug ;\n\n    struct DeliverySlot{\n        uint id;\n        bool    isTradeable;\n        uint  timeFrom;\n        uint  timeTo;\n        uint    price;\n        string  gate;\n        string  warehousename;\n        string  logisticType;\n    }\n\n    struct Supplier {\n        address userId;\n        mapping (uint => DeliverySlot) deliverySlots;\n        //DeliverySlot[] deliverySlots;\n    }\n\n    uint public maxid;\n\n    address public warehouse;\n    mapping(address => Supplier) suppliers;\n\n\n    function TimeDeliveryManagement() public {\n            warehouse = msg.sender;\n            debug = \"wir gewinnen\";\n            maxid =0;\n        }\n\n    function createDeliverySlot()  public returns (uint currentID\n      ) {\n        if (msg.sender != warehouse) return;\n        currentID = maxid++;\n        suppliers[msg.sender].deliverySlots[currentID] = DeliverySlot(currentID,true,1245,1234,5,\"123\",\"Warenhaus1\", \"Food\" );\n        debug = \"hat geklappt\";\n        return currentID;\n    }\n\n    function getFirstDeliverySlots(uint indexofDS) public returns (string success)\n    {\n        //prüfe Vergangeheit\n        success = suppliers[warehouse].deliverySlots[indexofDS].warehousename;\n        return success;\n    }\n\n    function getAllDeliverySlots(string searchstring) public returns (string success)\n    {\n\n        success = \"{[\";\n\n        for (uint i = 1; i < maxid; i++) {\n          //check if Old\n          if(myDelSlot.timeTo >   block.timestamp) continue;\n          //check if available\n\n          success.concat(\"{\");\n          DeliverySlot storage myDelSlot = suppliers[warehouse].deliverySlots[i];\n          success.concat(myDelSlot.warehousename).concat(\" , \");\n          //success.concat(myDelSlot.timeFrom).concat(\" , \");\n          //success.concat(myDelSlot.timeTo).concat(\" , \");\n          success.concat(myDelSlot.gate).concat(\" , \");\n          success.concat(myDelSlot.logisticType).concat(\" , \");\n          success.concat(\"}\");\n        }\n        success.concat(\"]}\");\n\n        return success;\n    }\n\n    function purchaseDeliverySlot(uint idOfDS) public returns (bool success)\n    {\n      DeliverySlot storage myDelSlot = suppliers[warehouse].deliverySlots[idOfDS];\n      //check if Old\n      if(myDelSlot.timeTo >   block.timestamp) return false;\n\n      myDelSlot.isTradeable = false;\n      suppliers[msg.sender].deliverySlots[idOfDS] = myDelSlot;\n      return true;\n    }\n\n    function offerDeliverySlot(uint idOfDS) public returns (bool success)\n    {\n      DeliverySlot storage myDelSlot =suppliers[msg.sender].deliverySlots[idOfDS];\n      //check if Old\n      if(myDelSlot.timeTo >   block.timestamp) return false;\n\n      myDelSlot.isTradeable = true;\n      return true;\n    }\n\n    function setBuyOrderDeliverySlot() public returns (bool success)\n    {\n\n      //Foreach available Slot\n      return true;\n    }\n\n}\n",
  "sourcePath": "/Users/tneureuther/BlockHackTeam/hack/contracts/TimeDeliveryManagement.sol",
  "compiler": {
    "name": "solc",
    "version": "0.4.19+commit.c4cbbb05.Emscripten.clang"
  },
  "schemaVersion": "1.0.1",
  "updatedAt": "2018-02-23T19:16:25.966Z"
}