{
  "contractName": "TimeDeliveryManagement",
  "abi": [
    {
      "constant": true,
      "inputs": [],
      "name": "debug",
      "outputs": [
        {
          "name": "",
          "type": "string"
        }
      ],
      "payable": false,
      "stateMutability": "view",
      "type": "function"
    },
    {
      "constant": true,
      "inputs": [],
      "name": "maxid",
      "outputs": [
        {
          "name": "",
          "type": "uint256"
        }
      ],
      "payable": false,
      "stateMutability": "view",
      "type": "function"
    },
    {
      "constant": true,
      "inputs": [],
      "name": "warehouse",
      "outputs": [
        {
          "name": "",
          "type": "address"
        }
      ],
      "payable": false,
      "stateMutability": "view",
      "type": "function"
    },
    {
      "inputs": [],
      "payable": false,
      "stateMutability": "nonpayable",
      "type": "constructor"
    },
    {
      "constant": false,
      "inputs": [],
      "name": "createDeliverySlot",
      "outputs": [],
      "payable": false,
      "stateMutability": "nonpayable",
      "type": "function"
    },
    {
      "constant": false,
      "inputs": [
        {
          "name": "id",
          "type": "uint256"
        },
        {
          "name": "isTradeable",
          "type": "bool"
        },
        {
          "name": "from",
          "type": "string"
        },
        {
          "name": "to",
          "type": "string"
        },
        {
          "name": "price",
          "type": "uint256"
        },
        {
          "name": "gate",
          "type": "string"
        },
        {
          "name": "warehouseName",
          "type": "string"
        },
        {
          "name": "deliveryType",
          "type": "string"
        }
      ],
      "name": "update",
      "outputs": [],
      "payable": false,
      "stateMutability": "nonpayable",
      "type": "function"
    },
    {
      "constant": false,
      "inputs": [
        {
          "name": "indexofDS",
          "type": "uint256"
        }
      ],
      "name": "getFirstDeliverySlots",
      "outputs": [
        {
          "name": "success",
          "type": "string"
        }
      ],
      "payable": false,
      "stateMutability": "nonpayable",
      "type": "function"
    },
    {
      "constant": false,
      "inputs": [
        {
          "name": "searchstring",
          "type": "string"
        }
      ],
      "name": "getAllDeliverySlots",
      "outputs": [
        {
          "name": "success",
          "type": "string"
        }
      ],
      "payable": false,
      "stateMutability": "nonpayable",
      "type": "function"
    },
    {
      "constant": false,
      "inputs": [
        {
          "name": "idOfDS",
          "type": "uint256"
        }
      ],
      "name": "bookDeliverySlot",
      "outputs": [
        {
          "name": "success",
          "type": "string"
        }
      ],
      "payable": false,
      "stateMutability": "nonpayable",
      "type": "function"
    }
  ],
  "bytecode": "0x606060405234156200001057600080fd5b33600260006101000a81548173ffffffffffffffffffffffffffffffffffffffff021916908373ffffffffffffffffffffffffffffffffffffffff1602179055506040805190810160405280600c81526020017f77697220676577696e6e656e0000000000000000000000000000000000000000815250600090805190602001906200009e929190620000ad565b5060006001819055506200015c565b828054600181600116156101000203166002900490600052602060002090601f016020900481019282601f10620000f057805160ff191683800117855562000121565b8280016001018555821562000121579182015b828111156200012057825182559160200191906001019062000103565b5b50905062000130919062000134565b5090565b6200015991905b80821115620001555760008160009055506001016200013b565b5090565b90565b611367806200016c6000396000f30060606040526004361061008e576000357c0100000000000000000000000000000000000000000000000000000000900463ffffffff168063588ee29b1461009357806382879f29146101215780638b5fae5d146101bd5780639b622769146101e6578063b134645d1461023b578063c158c5c714610311578063cc82337414610497578063e695f626146104ac575b600080fd5b341561009e57600080fd5b6100a6610548565b6040518080602001828103825283818151815260200191508051906020019080838360005b838110156100e65780820151818401526020810190506100cb565b50505050905090810190601f1680156101135780820380516001836020036101000a031916815260200191505b509250505060405180910390f35b341561012c57600080fd5b61014260048080359060200190919050506105e6565b6040518080602001828103825283818151815260200191508051906020019080838360005b83811015610182578082015181840152602081019050610167565b50505050905090810190601f1680156101af5780820380516001836020036101000a031916815260200191505b509250505060405180910390f35b34156101c857600080fd5b6101d061080b565b6040518082815260200191505060405180910390f35b34156101f157600080fd5b6101f9610811565b604051808273ffffffffffffffffffffffffffffffffffffffff1673ffffffffffffffffffffffffffffffffffffffff16815260200191505060405180910390f35b341561024657600080fd5b610296600480803590602001908201803590602001908080601f01602080910402602001604051908101604052809392919081815260200183838082843782019150505050505091905050610837565b6040518080602001828103825283818151815260200191508051906020019080838360005b838110156102d65780820151818401526020810190506102bb565b50505050905090810190601f1680156103035780820380516001836020036101000a031916815260200191505b509250505060405180910390f35b341561031c57600080fd5b6104956004808035906020019091908035151590602001909190803590602001908201803590602001908080601f0160208091040260200160405190810160405280939291908181526020018383808284378201915050505050509190803590602001908201803590602001908080601f0160208091040260200160405190810160405280939291908181526020018383808284378201915050505050509190803590602001909190803590602001908201803590602001908080601f0160208091040260200160405190810160405280939291908181526020018383808284378201915050505050509190803590602001908201803590602001908080601f0160208091040260200160405190810160405280939291908181526020018383808284378201915050505050509190803590602001908201803590602001908080601f016020809104026020016040519081016040528093929190818152602001838380828437820191505050505050919050506109ef565b005b34156104a257600080fd5b6104aa610c10565b005b34156104b757600080fd5b6104cd6004808035906020019091905050610f44565b6040518080602001828103825283818151815260200191508051906020019080838360005b8381101561050d5780820151818401526020810190506104f2565b50505050905090810190601f16801561053a5780820380516001836020036101000a031916815260200191505b509250505060405180910390f35b60008054600181600116156101000203166002900480601f0160208091040260200160405190810160405280929190818152602001828054600181600116156101000203166002900480156105de5780601f106105b3576101008083540402835291602001916105de565b820191906000526020600020905b8154815290600101906020018083116105c157829003601f168201915b505050505081565b6105ee61106e565b600060036000600260009054906101000a900473ffffffffffffffffffffffffffffffffffffffff1673ffffffffffffffffffffffffffffffffffffffff1673ffffffffffffffffffffffffffffffffffffffff168152602001908152602001600020600101600081548110151561066257fe5b9060005260206000209060080201905060008160010160006101000a81548160ff021916908315150217905550600360003373ffffffffffffffffffffffffffffffffffffffff1673ffffffffffffffffffffffffffffffffffffffff16815260200190815260200160002060010180548060010182816106e39190611082565b91600052602060002090600802016000839091909150600082015481600001556001820160009054906101000a900460ff168160010160006101000a81548160ff021916908315150217905550600282018160020190805460018160011615610100020316600290046107579291906110b4565b506003820181600301908054600181600116156101000203166002900461077f9291906110b4565b5060048201548160040155600582018160050190805460018160011615610100020316600290046107b19291906110b4565b50600682018160060190805460018160011615610100020316600290046107d99291906110b4565b50600782018160070190805460018160011615610100020316600290046108019291906110b4565b5050505050919050565b60015481565b600260009054906101000a900473ffffffffffffffffffffffffffffffffffffffff1681565b61083f61106e565b60008060036000600260009054906101000a900473ffffffffffffffffffffffffffffffffffffffff1673ffffffffffffffffffffffffffffffffffffffff1673ffffffffffffffffffffffffffffffffffffffff16815260200190815260200160002060010160008154811015156108b457fe5b9060005260206000209060080201600201915060036000600260009054906101000a900473ffffffffffffffffffffffffffffffffffffffff1673ffffffffffffffffffffffffffffffffffffffff1673ffffffffffffffffffffffffffffffffffffffff168152602001908152602001600020600101600081548110151561093957fe5b90600052602060002090600802016003019050818054600181600116156101000203166002900480601f0160208091040260200160405190810160405280929190818152602001828054600181600116156101000203166002900480156109e15780601f106109b6576101008083540402835291602001916109e1565b820191906000526020600020905b8154815290600101906020018083116109c457829003601f168201915b505050505092505050919050565b600260009054906101000a900473ffffffffffffffffffffffffffffffffffffffff1673ffffffffffffffffffffffffffffffffffffffff163373ffffffffffffffffffffffffffffffffffffffff16141515610a4b57610c06565b600360003373ffffffffffffffffffffffffffffffffffffffff1673ffffffffffffffffffffffffffffffffffffffff1681526020019081526020016000206001018054806001018281610a9f9190611082565b91600052602060002090600802016000610100604051908101604052808c81526020018b151581526020018a81526020018981526020018881526020018781526020018681526020018581525090919091506000820151816000015560208201518160010160006101000a81548160ff0219169083151502179055506040820151816002019080519060200190610b3792919061113b565b506060820151816003019080519060200190610b5492919061113b565b506080820151816004015560a0820151816005019080519060200190610b7b92919061113b565b5060c0820151816006019080519060200190610b9892919061113b565b5060e0820151816007019080519060200190610bb592919061113b565b505050506040805190810160405280600c81526020017f6861742067656b6c61707074000000000000000000000000000000000000000081525060009080519060200190610c049291906111bb565b505b5050505050505050565b600260009054906101000a900473ffffffffffffffffffffffffffffffffffffffff1673ffffffffffffffffffffffffffffffffffffffff163373ffffffffffffffffffffffffffffffffffffffff16141515610c6c57610f42565b600360003373ffffffffffffffffffffffffffffffffffffffff1673ffffffffffffffffffffffffffffffffffffffff1681526020019081526020016000206001018054806001018281610cc09190611082565b9160005260206000209060080201600061010060405190810160405280600160008154809291906001019190505581526020016001151581526020016040805190810160405280600781526020017f6765737465726e0000000000000000000000000000000000000000000000000081525081526020016040805190810160405280600581526020017f68657574650000000000000000000000000000000000000000000000000000008152508152602001600581526020016040805190810160405280600381526020017f313233000000000000000000000000000000000000000000000000000000000081525081526020016040805190810160405280600a81526020017f576172656e68617573310000000000000000000000000000000000000000000081525081526020016040805190810160405280600381526020017f456973000000000000000000000000000000000000000000000000000000000081525081525090919091506000820151816000015560208201518160010160006101000a81548160ff0219169083151502179055506040820151816002019080519060200190610e7392919061113b565b506060820151816003019080519060200190610e9092919061113b565b506080820151816004015560a0820151816005019080519060200190610eb792919061113b565b5060c0820151816006019080519060200190610ed492919061113b565b5060e0820151816007019080519060200190610ef192919061113b565b505050506040805190810160405280600c81526020017f6861742067656b6c61707074000000000000000000000000000000000000000081525060009080519060200190610f409291906111bb565b505b565b610f4c61106e565b60036000600260009054906101000a900473ffffffffffffffffffffffffffffffffffffffff1673ffffffffffffffffffffffffffffffffffffffff1673ffffffffffffffffffffffffffffffffffffffff16815260200190815260200160002060010182815481101515610fbd57fe5b90600052602060002090600802016002018054600181600116156101000203166002900480601f0160208091040260200160405190810160405280929190818152602001828054600181600116156101000203166002900480156110625780601f1061103757610100808354040283529160200191611062565b820191906000526020600020905b81548152906001019060200180831161104557829003601f168201915b50505050509050919050565b602060405190810160405280600081525090565b8154818355818115116110af576008028160080283600052602060002091820191016110ae919061123b565b5b505050565b828054600181600116156101000203166002900490600052602060002090601f016020900481019282601f106110ed578054855561112a565b8280016001018555821561112a57600052602060002091601f016020900482015b8281111561112957825482559160010191906001019061110e565b5b50905061113791906112ce565b5090565b828054600181600116156101000203166002900490600052602060002090601f016020900481019282601f1061117c57805160ff19168380011785556111aa565b828001600101855582156111aa579182015b828111156111a957825182559160200191906001019061118e565b5b5090506111b791906112ce565b5090565b828054600181600116156101000203166002900490600052602060002090601f016020900481019282601f106111fc57805160ff191683800117855561122a565b8280016001018555821561122a579182015b8281111561122957825182559160200191906001019061120e565b5b50905061123791906112ce565b5090565b6112cb91905b808211156112c7576000808201600090556001820160006101000a81549060ff021916905560028201600061127691906112f3565b60038201600061128691906112f3565b600482016000905560058201600061129e91906112f3565b6006820160006112ae91906112f3565b6007820160006112be91906112f3565b50600801611241565b5090565b90565b6112f091905b808211156112ec5760008160009055506001016112d4565b5090565b90565b50805460018160011615610100020316600290046000825580601f106113195750611338565b601f01602090049060005260206000209081019061133791906112ce565b5b505600a165627a7a7230582099dfa775693cf3c8c5b7801e03054dbf1959aac352a23f78a7bb8fc40314e7d80029",
  "source": "pragma solidity ^0.4.0;\ncontract TimeDeliveryManagement {\n\n   string public debug ;\n\n   struct DeliverySlot{\n       uint256 id;\n       bool    isTradeable;\n       string  timeFrom;\n       string  timeTo;\n       uint    price;\n       string  gate;\n       string  warehouseName;\n       string  deliveryType;\n   }\n\n   struct Supplier {\n       address userId;\n       DeliverySlot[] deliverySlots;\n   }\n\n   uint256 public maxid;\n\n   address public warehouse;\n   mapping(address => Supplier) suppliers;\n\n\n   function TimeDeliveryManagement() public {\n           warehouse = msg.sender;\n           debug = \"wir gewinnen\";\n           maxid = 0;\n       }\n\n   function createDeliverySlot()  public {\n       if (msg.sender != warehouse) return;\n            suppliers[msg.sender].deliverySlots.push(DeliverySlot({\n               id: maxid++, isTradeable: true, timeFrom: \"gestern\", timeTo: \"heute\", price:5, gate:\"123\", warehouseName: \"Warenhaus1\", deliveryType: \"Eis\"\n           }));\n           debug = \"hat geklappt\";\n   }\n\n   function update(uint256 id, bool isTradeable, string from, string to, uint price, string gate, string warehouseName, string deliveryType)  public {\n       if (msg.sender != warehouse) return;\n            suppliers[msg.sender].deliverySlots.push(DeliverySlot({\n              id: id, isTradeable: isTradeable, timeFrom: from, timeTo: to, price: price, gate: gate, warehouseName: warehouseName, deliveryType: deliveryType\n           }));\n           debug = \"hat geklappt\";\n   }\n\n   function getFirstDeliverySlots(uint256 indexofDS) public returns (string success)\n   {\n       success = suppliers[warehouse].deliverySlots[indexofDS].timeFrom;\n   }\n\n   function getAllDeliverySlots(string searchstring) public returns (string success)\n   {\n       string storage s1 = suppliers[warehouse].deliverySlots[0].timeFrom;\n       string storage s2 = suppliers[warehouse].deliverySlots[0].timeTo;\n       success = s1;\n   }\n\n   function bookDeliverySlot(uint256 idOfDS) public returns (string success)\n   {\n     DeliverySlot storage deSlot = suppliers[warehouse].deliverySlots[0];\n     deSlot.isTradeable = false;\n     suppliers[msg.sender].deliverySlots.push(deSlot);\n   }\n\n}\n",
  "sourcePath": "/Users/markus.frindt/projects/hackathon/contracts/TimeDeliveryManagement.sol",
  "compiler": {
    "name": "solc",
    "version": "0.4.19+commit.c4cbbb05.Emscripten.clang"
  },
  "schemaVersion": "1.0.1",
  "updatedAt": "2018-02-23T17:59:53.158Z"
}