{
  "contractName": "TimeDeliveryManagement",
  "abi": [
    {
      "constant": true,
      "inputs": [],
      "name": "maxDSId",
      "outputs": [
        {
          "name": "",
          "type": "uint256"
        }
      ],
      "payable": false,
      "stateMutability": "view",
      "type": "function"
    },
    {
      "constant": true,
      "inputs": [],
      "name": "debug",
      "outputs": [
        {
          "name": "",
          "type": "string"
        }
      ],
      "payable": false,
      "stateMutability": "view",
      "type": "function"
    },
    {
      "constant": true,
      "inputs": [],
      "name": "warehouse",
      "outputs": [
        {
          "name": "",
          "type": "address"
        }
      ],
      "payable": false,
      "stateMutability": "view",
      "type": "function"
    },
    {
      "inputs": [],
      "payable": false,
      "stateMutability": "nonpayable",
      "type": "constructor"
    },
    {
      "constant": false,
      "inputs": [
        {
          "name": "warehousename",
          "type": "string"
        },
        {
          "name": "isTradeable",
          "type": "bool"
        },
        {
          "name": "timeFrom",
          "type": "uint32"
        },
        {
          "name": "timeTo",
          "type": "uint32"
        },
        {
          "name": "price",
          "type": "uint256"
        },
        {
          "name": "gate",
          "type": "string"
        },
        {
          "name": "logisticType",
          "type": "string"
        }
      ],
      "name": "createDeliverySlot",
      "outputs": [
        {
          "name": "currentID",
          "type": "uint256"
        }
      ],
      "payable": false,
      "stateMutability": "nonpayable",
      "type": "function"
    },
    {
      "constant": false,
      "inputs": [
        {
          "name": "fromAddress",
          "type": "address"
        }
      ],
      "name": "createSupplier",
      "outputs": [
        {
          "name": "success",
          "type": "bool"
        }
      ],
      "payable": false,
      "stateMutability": "nonpayable",
      "type": "function"
    },
    {
      "constant": false,
      "inputs": [
        {
          "name": "indexofDS",
          "type": "uint256"
        }
      ],
      "name": "getFirstDeliverySlots",
      "outputs": [
        {
          "name": "success",
          "type": "string"
        }
      ],
      "payable": false,
      "stateMutability": "nonpayable",
      "type": "function"
    },
    {
      "constant": false,
      "inputs": [
        {
          "name": "searchstring",
          "type": "string"
        }
      ],
      "name": "getAllDeliverySlots",
      "outputs": [
        {
          "name": "response",
          "type": "string"
        }
      ],
      "payable": false,
      "stateMutability": "nonpayable",
      "type": "function"
    },
    {
      "constant": false,
      "inputs": [
        {
          "name": "idOfDS",
          "type": "uint256"
        }
      ],
      "name": "purchaseDeliverySlot",
      "outputs": [
        {
          "name": "success",
          "type": "bool"
        }
      ],
      "payable": false,
      "stateMutability": "nonpayable",
      "type": "function"
    },
    {
      "constant": false,
      "inputs": [
        {
          "name": "idOfDS",
          "type": "uint256"
        }
      ],
      "name": "offerDeliverySlot",
      "outputs": [
        {
          "name": "success",
          "type": "bool"
        }
      ],
      "payable": false,
      "stateMutability": "nonpayable",
      "type": "function"
    },
    {
      "constant": false,
      "inputs": [],
      "name": "setBuyOrderDeliverySlot",
      "outputs": [
        {
          "name": "dsID",
          "type": "uint256"
        }
      ],
      "payable": false,
      "stateMutability": "nonpayable",
      "type": "function"
    }
  ],
  "bytecode": "0x606060405234156200001057600080fd5b33600260006101000a81548173ffffffffffffffffffffffffffffffffffffffff021916908373ffffffffffffffffffffffffffffffffffffffff1602179055506040805190810160405280600781526020017f7374617274656400000000000000000000000000000000000000000000000000815250600090805190602001906200009e929190620000ad565b5060006001819055506200015c565b828054600181600116156101000203166002900490600052602060002090601f016020900481019282601f10620000f057805160ff191683800117855562000121565b8280016001018555821562000121579182015b828111156200012057825182559160200191906001019062000103565b5b50905062000130919062000134565b5090565b6200015991905b80821115620001555760008160009055506001016200013b565b5090565b90565b61198c806200016c6000396000f3006060604052600436106100a4576000357c0100000000000000000000000000000000000000000000000000000000900463ffffffff1680631aab4669146100a957806326be8ae2146100fa5780633ba42d011461022357806345d5eccc1461024c5780634fd1750d14610287578063588ee29b146102c25780639b62276914610350578063b134645d146103a5578063bba57ad41461047b578063e695f626146104a4575b600080fd5b34156100b457600080fd5b6100e0600480803573ffffffffffffffffffffffffffffffffffffffff16906020019091905050610540565b604051808215151515815260200191505060405180910390f35b341561010557600080fd5b61020d600480803590602001908201803590602001908080601f01602080910402602001604051908101604052809392919081815260200183838082843782019150505050505091908035151590602001909190803563ffffffff1690602001909190803563ffffffff1690602001909190803590602001909190803590602001908201803590602001908080601f0160208091040260200160405190810160405280939291908181526020018383808284378201915050505050509190803590602001908201803590602001908080601f016020809104026020016040519081016040528093929190818152602001838380828437820191505050505050919050506106a2565b6040518082815260200191505060405180910390f35b341561022e57600080fd5b61023661094b565b6040518082815260200191505060405180910390f35b341561025757600080fd5b61026d6004808035906020019091905050610951565b604051808215151515815260200191505060405180910390f35b341561029257600080fd5b6102a86004808035906020019091905050610c68565b604051808215151515815260200191505060405180910390f35b34156102cd57600080fd5b6102d5610d75565b6040518080602001828103825283818151815260200191508051906020019080838360005b838110156103155780820151818401526020810190506102fa565b50505050905090810190601f1680156103425780820380516001836020036101000a031916815260200191505b509250505060405180910390f35b341561035b57600080fd5b610363610e13565b604051808273ffffffffffffffffffffffffffffffffffffffff1673ffffffffffffffffffffffffffffffffffffffff16815260200191505060405180910390f35b34156103b057600080fd5b610400600480803590602001908201803590602001908080601f01602080910402602001604051908101604052809392919081815260200183838082843782019150505050505091905050610e39565b6040518080602001828103825283818151815260200191508051906020019080838360005b83811015610440578082015181840152602081019050610425565b50505050905090810190601f16801561046d5780820380516001836020036101000a031916815260200191505b509250505060405180910390f35b341561048657600080fd5b61048e611367565b6040518082815260200191505060405180910390f35b34156104af57600080fd5b6104c56004808035906020019091905050611480565b6040518080602001828103825283818151815260200191508051906020019080838360005b838110156105055780820151818401526020810190506104ea565b50505050905090810190601f1680156105325780820380516001836020036101000a031916815260200191505b509250505060405180910390f35b6000600260009054906101000a900473ffffffffffffffffffffffffffffffffffffffff1673ffffffffffffffffffffffffffffffffffffffff163373ffffffffffffffffffffffffffffffffffffffff1614151561059e5761069d565b6020604051908101604052808373ffffffffffffffffffffffffffffffffffffffff16815250600360008473ffffffffffffffffffffffffffffffffffffffff1673ffffffffffffffffffffffffffffffffffffffff16815260200190815260200160002060008201518160000160006101000a81548173ffffffffffffffffffffffffffffffffffffffff021916908373ffffffffffffffffffffffffffffffffffffffff1602179055509050506040805190810160405280601981526020017f7375636365737366756c20637265617465537570706c696572000000000000008152506000908051906020019061069892919061178c565b508090505b919050565b6000600260009054906101000a900473ffffffffffffffffffffffffffffffffffffffff1673ffffffffffffffffffffffffffffffffffffffff163373ffffffffffffffffffffffffffffffffffffffff1614151561070057610940565b600160008154809291906001019190505590506101206040519081016040528082815260200189815260200188151581526020018763ffffffff1681526020018663ffffffff168152602001858152602001848152602001838152602001600073ffffffffffffffffffffffffffffffffffffffff16815250600360003373ffffffffffffffffffffffffffffffffffffffff1673ffffffffffffffffffffffffffffffffffffffff16815260200190815260200160002060010160008381526020019081526020016000206000820151816000015560208201518160010190805190602001906107f292919061180c565b5060408201518160020160006101000a81548160ff02191690831515021790555060608201518160020160016101000a81548163ffffffff021916908363ffffffff16021790555060808201518160020160056101000a81548163ffffffff021916908363ffffffff16021790555060a0820151816003015560c082015181600401908051906020019061088792919061180c565b5060e08201518160050190805190602001906108a492919061180c565b506101008201518160060160006101000a81548173ffffffffffffffffffffffffffffffffffffffff021916908373ffffffffffffffffffffffffffffffffffffffff1602179055509050506040805190810160405280601d81526020017f7375636365737366756c2063726561746544656c6976657279536c6f740000008152506000908051906020019061093b92919061178c565b508090505b979650505050505050565b60015481565b60008060036000600260009054906101000a900473ffffffffffffffffffffffffffffffffffffffff1673ffffffffffffffffffffffffffffffffffffffff1673ffffffffffffffffffffffffffffffffffffffff16815260200190815260200160002060010160008481526020019081526020016000209050428160020160019054906101000a900463ffffffff1663ffffffff1611156109f65760009150610c62565b60008160020160006101000a81548160ff021916908315150217905550338160060160006101000a81548173ffffffffffffffffffffffffffffffffffffffff021916908373ffffffffffffffffffffffffffffffffffffffff1602179055508060036000600260009054906101000a900473ffffffffffffffffffffffffffffffffffffffff1673ffffffffffffffffffffffffffffffffffffffff1673ffffffffffffffffffffffffffffffffffffffff16815260200190815260200160002060010160008581526020019081526020016000206000820154816000015560018201816001019080546001816001161561010002031660029004610afd92919061188c565b506002820160009054906101000a900460ff168160020160006101000a81548160ff0219169083151502179055506002820160019054906101000a900463ffffffff168160020160016101000a81548163ffffffff021916908363ffffffff1602179055506002820160059054906101000a900463ffffffff168160020160056101000a81548163ffffffff021916908363ffffffff1602179055506003820154816003015560048201816004019080546001816001161561010002031660029004610bca92919061188c565b5060058201816005019080546001816001161561010002031660029004610bf292919061188c565b506006820160009054906101000a900473ffffffffffffffffffffffffffffffffffffffff168160060160006101000a81548173ffffffffffffffffffffffffffffffffffffffff021916908373ffffffffffffffffffffffffffffffffffffffff160217905550905050600191505b50919050565b600080600360003373ffffffffffffffffffffffffffffffffffffffff1673ffffffffffffffffffffffffffffffffffffffff16815260200190815260200160002060010160008481526020019081526020016000209050428160020160059054906101000a900463ffffffff1663ffffffff161115610ceb5760009150610d6f565b3373ffffffffffffffffffffffffffffffffffffffff168160060160009054906101000a900473ffffffffffffffffffffffffffffffffffffffff1673ffffffffffffffffffffffffffffffffffffffff16141515610d4d5760009150610d6f565b60018160020160006101000a81548160ff021916908315150217905550600191505b50919050565b60008054600181600116156101000203166002900480601f016020809104026020016040519081016040528092919081815260200182805460018160011615610100020316600290048015610e0b5780601f10610de057610100808354040283529160200191610e0b565b820191906000526020600020905b815481529060010190602001808311610dee57829003601f168201915b505050505081565b600260009054906101000a900473ffffffffffffffffffffffffffffffffffffffff1681565b610e41611913565b6000806040805190810160405280600281526020017f7b5b0000000000000000000000000000000000000000000000000000000000008152509250600191505b6001548210156112c85760036000600260009054906101000a900473ffffffffffffffffffffffffffffffffffffffff1673ffffffffffffffffffffffffffffffffffffffff1673ffffffffffffffffffffffffffffffffffffffff16815260200190815260200160002060010160008381526020019081526020016000209050428160020160059054906101000a900463ffffffff1663ffffffff161180610f3957508060020160009054906101000a900460ff16155b15610f43576112bb565b610f8b6040805190810160405280600181526020017f7b00000000000000000000000000000000000000000000000000000000000000815250846115a390919063ffffffff16565b506110826040805190810160405280600381526020017f202c200000000000000000000000000000000000000000000000000000000000815250611074836001018054600181600116156101000203166002900480601f0160208091040260200160405190810160405280929190818152602001828054600181600116156101000203166002900480156110605780601f1061103557610100808354040283529160200191611060565b820191906000526020600020905b81548152906001019060200180831161104357829003601f168201915b5050505050866115a390919063ffffffff16565b6115a390919063ffffffff16565b506111796040805190810160405280600381526020017f202c20000000000000000000000000000000000000000000000000000000000081525061116b836004018054600181600116156101000203166002900480601f0160208091040260200160405190810160405280929190818152602001828054600181600116156101000203166002900480156111575780601f1061112c57610100808354040283529160200191611157565b820191906000526020600020905b81548152906001019060200180831161113a57829003601f168201915b5050505050866115a390919063ffffffff16565b6115a390919063ffffffff16565b506112706040805190810160405280600381526020017f202c200000000000000000000000000000000000000000000000000000000000815250611262836005018054600181600116156101000203166002900480601f01602080910402602001604051908101604052809291908181526020018280546001816001161561010002031660029004801561124e5780601f106112235761010080835404028352916020019161124e565b820191906000526020600020905b81548152906001019060200180831161123157829003601f168201915b5050505050866115a390919063ffffffff16565b6115a390919063ffffffff16565b506112b96040805190810160405280600281526020017f7d2c000000000000000000000000000000000000000000000000000000000000815250846115a390919063ffffffff16565b505b8180600101925050610e81565b6113106040805190810160405280600281526020017f5d7d000000000000000000000000000000000000000000000000000000000000815250846115a390919063ffffffff16565b506040805190810160405280601e81526020017f7375636365737366756c20676574416c6c44656c6976657279536c6f747300008152506000908051906020019061135c92919061178c565b508292505050919050565b6000806000806000935063800000009250600191505b6001548210156114775760036000600260009054906101000a900473ffffffffffffffffffffffffffffffffffffffff1673ffffffffffffffffffffffffffffffffffffffff1673ffffffffffffffffffffffffffffffffffffffff16815260200190815260200160002060010160008381526020019081526020016000209050428160020160019054906101000a900463ffffffff1663ffffffff16118061143557508060020160009054906101000a900460ff16155b1561143f5761146a565b828160020160019054906101000a900463ffffffff1663ffffffff16101561146957806000015493505b5b818060010192505061137d565b83935050505090565b611488611913565b60036000600260009054906101000a900473ffffffffffffffffffffffffffffffffffffffff1673ffffffffffffffffffffffffffffffffffffffff1673ffffffffffffffffffffffffffffffffffffffff16815260200190815260200160002060010160008381526020019081526020016000206001018054600181600116156101000203166002900480601f0160208091040260200160405190810160405280929190818152602001828054600181600116156101000203166002900480156115945780601f1061156957610100808354040283529160200191611594565b820191906000526020600020905b81548152906001019060200180831161157757829003601f168201915b50505050509050809050919050565b6115ab611913565b6115b3611927565b6115bb611927565b6115c3611913565b6115cb611927565b600080889550879450600085511115156115e157fe5b84518651016040518059106115f35750595b9080825280601f01601f19166020018201604052509350839250600091505b85518210156116c557858281518110151561162957fe5b9060200101517f010000000000000000000000000000000000000000000000000000000000000090047f010000000000000000000000000000000000000000000000000000000000000002838280600101935081518110151561168857fe5b9060200101907effffffffffffffffffffffffffffffffffffffffffffffffffffffffffffff1916908160001a9053508180600101925050611612565b600091505b845182101561177d5784828151811015156116e157fe5b9060200101517f010000000000000000000000000000000000000000000000000000000000000090047f010000000000000000000000000000000000000000000000000000000000000002838280600101935081518110151561174057fe5b9060200101907effffffffffffffffffffffffffffffffffffffffffffffffffffffffffffff1916908160001a90535081806001019250506116ca565b82965050505050505092915050565b828054600181600116156101000203166002900490600052602060002090601f016020900481019282601f106117cd57805160ff19168380011785556117fb565b828001600101855582156117fb579182015b828111156117fa5782518255916020019190600101906117df565b5b509050611808919061193b565b5090565b828054600181600116156101000203166002900490600052602060002090601f016020900481019282601f1061184d57805160ff191683800117855561187b565b8280016001018555821561187b579182015b8281111561187a57825182559160200191906001019061185f565b5b509050611888919061193b565b5090565b828054600181600116156101000203166002900490600052602060002090601f016020900481019282601f106118c55780548555611902565b8280016001018555821561190257600052602060002091601f016020900482015b828111156119015782548255916001019190600101906118e6565b5b50905061190f919061193b565b5090565b602060405190810160405280600081525090565b602060405190810160405280600081525090565b61195d91905b80821115611959576000816000905550600101611941565b5090565b905600a165627a7a723058200fe448d2e37dfda3e316bde42d64bfe12034ea4f01fb86addcfb0c69624cca530029",
  "source": "\n//import \"https://github.com/Arachnid/solidity-stringutils/blob/master/strings.sol\";\n\n//https://github.com/willitscale/solidity-util#concatstring--string kopiert\nimport \"./Strings.sol\";\n\npragma solidity ^0.4.0;\n\ncontract TimeDeliveryManagement {\n    using Strings for string;\n\n    struct DeliverySlot{\n        uint id;\n\n        string  warehousename;\n        bool    isTradeable;\n        uint32  timeFrom;\n        uint32  timeTo;\n        uint    price;\n        string  gate;\n        string  logisticType;\n        address supplierAd;\n    }\n\n    struct Supplier {\n        address supId;\n        mapping (uint => DeliverySlot) deliverySlots;\n    }\n\n    string public debug ;\n    uint public maxDSId;\n    address public warehouse;\n    mapping(address => Supplier) suppliers;\n\n\n    function TimeDeliveryManagement() public {\n            warehouse = msg.sender;\n            debug = \"started\";\n            maxDSId =0;\n    }\n\n    function createDeliverySlot(string warehousename,bool isTradeable,uint32 timeFrom,uint32 timeTo,uint price,string gate,string logisticType)  public returns (uint currentID)\n    {\n        if (msg.sender != warehouse) return;\n        currentID = maxDSId++;\n\n        suppliers[msg.sender].deliverySlots[currentID] = DeliverySlot(currentID,warehousename, isTradeable,timeFrom,timeTo,price,gate,logisticType, address(0));\n        debug = \"successful createDeliverySlot\";\n        return currentID;\n    }\n\n    function createSupplier(address fromAddress)  public returns (bool success)\n    {\n      //generate address in web3?\n      //initalise a amount of money?\n        if (msg.sender != warehouse) return;\n\n        suppliers[fromAddress] = Supplier(fromAddress);\n        debug = \"successful createSupplier\";\n        return success;\n    }\n\n    function getFirstDeliverySlots(uint indexofDS) public returns (string success)\n    {\n      //TODO\n        //prüfe Vergangeheit\n        success = suppliers[warehouse].deliverySlots[indexofDS].warehousename;\n        return success;\n    }\n\n    function getAllDeliverySlots(string searchstring) public returns (string response)\n    {\n        response = \"{[\";\n\n        for (uint i = 1; i < maxDSId; i++) {\n          DeliverySlot storage myDelSlot = suppliers[warehouse].deliverySlots[i];\n          //check if Old  //check if available\n          if(myDelSlot.timeTo >   block.timestamp || !myDelSlot.isTradeable) continue;\n\n          response.concat(\"{\");\n          response.concat(myDelSlot.warehousename).concat(\" , \");\n          //success.concat(myDelSlot.timeFrom).concat(\" , \");\n          //success.concat(myDelSlot.timeTo).concat(\" , \");\n          response.concat(myDelSlot.gate).concat(\" , \");\n          response.concat(myDelSlot.logisticType).concat(\" , \");\n          response.concat(\"},\");\n        }\n        response.concat(\"]}\");\n        debug = \"successful getAllDeliverySlots\";\n\n        return response;\n    }\n\n    function purchaseDeliverySlot(uint idOfDS) public returns (bool success)\n    {\n      DeliverySlot storage myDelSlot = suppliers[warehouse].deliverySlots[idOfDS];\n      //check if Old\n      if(myDelSlot.timeFrom >   block.timestamp) return false;\n\n      myDelSlot.isTradeable = false;\n      myDelSlot.supplierAd = msg.sender;\n      suppliers[warehouse].deliverySlots[idOfDS] = myDelSlot;\n\n      return true;\n    }\n\n    function offerDeliverySlot(uint idOfDS) public returns (bool success)\n    {\n      DeliverySlot storage myDelSlot =suppliers[msg.sender].deliverySlots[idOfDS];\n      //check if Old\n      if(myDelSlot.timeTo >   block.timestamp) return false;\n      //TOO nur besizte darf freigeben\n      if(myDelSlot.supplierAd != msg.sender) return false;\n\n\n      myDelSlot.isTradeable = true;\n      return true;\n    }\n\n    function setBuyOrderDeliverySlot() public returns (uint dsID)\n    {\n      dsID = 0;\n      uint  minimaltimestamp;\n      minimaltimestamp = 2147483648;\n      //Foreach available Slot\n      for (uint i = 1; i < maxDSId; i++) {\n        DeliverySlot storage myDelSlot = suppliers[warehouse].deliverySlots[i];\n        //check if Old //check if available\n        if(myDelSlot.timeFrom >   block.timestamp || !myDelSlot.isTradeable) continue;\n        if(myDelSlot.timeFrom <minimaltimestamp)\n          dsID= myDelSlot.id;\n      }\n\n      return dsID;\n    }\n\n}\n",
  "sourcePath": "/Users/tneureuther/BlockHackTeam/hack/contracts/TimeDeliveryManagement.sol",
  "compiler": {
    "name": "solc",
    "version": "0.4.19+commit.c4cbbb05.Emscripten.clang"
  },
  "schemaVersion": "1.0.1",
  "updatedAt": "2018-02-23T20:28:47.869Z"
}